{
  "contractName": "MessagesPool",
  "abi": [
    {
      "anonymous": false,
      "inputs": [
        {
          "indexed": false,
          "internalType": "address",
          "name": "user",
          "type": "address"
        },
        {
          "indexed": false,
          "internalType": "string",
          "name": "message",
          "type": "string"
        }
      ],
      "name": "PostSucceed",
      "type": "event"
    },
    {
      "constant": true,
      "inputs": [
        {
          "internalType": "uint256",
          "name": "",
          "type": "uint256"
        }
      ],
      "name": "messagesPool",
      "outputs": [
        {
          "internalType": "string",
          "name": "",
          "type": "string"
        }
      ],
      "payable": false,
      "stateMutability": "view",
      "type": "function"
    },
    {
      "constant": true,
      "inputs": [],
      "name": "getMessagesLength",
      "outputs": [
        {
          "internalType": "uint256",
          "name": "",
          "type": "uint256"
        }
      ],
      "payable": false,
      "stateMutability": "view",
      "type": "function"
    },
    {
      "constant": false,
      "inputs": [
        {
          "internalType": "string",
          "name": "message",
          "type": "string"
        }
      ],
      "name": "postMessage",
      "outputs": [],
      "payable": false,
      "stateMutability": "nonpayable",
      "type": "function"
    }
  ],
  "bytecode": "0x608060405234801561001057600080fd5b5061058e806100206000396000f3fe608060405234801561001057600080fd5b50600436106100415760003560e01c80633bb32d54146100465780636630f88f14610064578063c106fb4b1461011f575b600080fd5b61004e6101c6565b6040518082815260200191505060405180910390f35b61011d6004803603602081101561007a57600080fd5b810190808035906020019064010000000081111561009757600080fd5b8201836020820111156100a957600080fd5b803590602001918460018302840111640100000000831117156100cb57600080fd5b91908080601f016020809104026020016040519081016040528093929190818152602001838380828437600081840152601f19601f8201169050808301925050505050505091929192905050506101d3565b005b61014b6004803603602081101561013557600080fd5b81019080803590602001909291905050506103fb565b6040518080602001828103825283818151815260200191508051906020019080838360005b8381101561018b578082015181840152602081019050610170565b50505050905090810190601f1680156101b85780820380516001836020036101000a031916815260200191505b509250505060405180910390f35b6000600180549050905090565b6000803373ffffffffffffffffffffffffffffffffffffffff1673ffffffffffffffffffffffffffffffffffffffff16815260200190815260200160002060009054906101000a900460ff1615610292576040517f08c379a00000000000000000000000000000000000000000000000000000000081526004018080602001828103825260148152602001807f796f752061726520706f737420616c726561647900000000000000000000000081525060200191505060405180910390fd5b60018190806001815401808255809150509060018203906000526020600020016000909192909190915090805190602001906102cf9291906104b4565b505060016000803373ffffffffffffffffffffffffffffffffffffffff1673ffffffffffffffffffffffffffffffffffffffff16815260200190815260200160002060006101000a81548160ff0219169083151502179055507f7e4ee71621e31e4cd00e26c61d7786337dd8e4731c0a164a9098e7bf988fe7c33382604051808373ffffffffffffffffffffffffffffffffffffffff1673ffffffffffffffffffffffffffffffffffffffff16815260200180602001828103825283818151815260200191508051906020019080838360005b838110156103bd5780820151818401526020810190506103a2565b50505050905090810190601f1680156103ea5780820380516001836020036101000a031916815260200191505b50935050505060405180910390a150565b6001818154811061040857fe5b906000526020600020016000915090508054600181600116156101000203166002900480601f0160208091040260200160405190810160405280929190818152602001828054600181600116156101000203166002900480156104ac5780601f10610481576101008083540402835291602001916104ac565b820191906000526020600020905b81548152906001019060200180831161048f57829003601f168201915b505050505081565b828054600181600116156101000203166002900490600052602060002090601f016020900481019282601f106104f557805160ff1916838001178555610523565b82800160010185558215610523579182015b82811115610522578251825591602001919060010190610507565b5b5090506105309190610534565b5090565b61055691905b8082111561055257600081600090555060010161053a565b5090565b9056fea265627a7a7231582052c475b5d447c34dc2f53c59d9088d2fbb5cb8e27e16cde60e46d05e214e5f1264736f6c63430005100032",
  "source": "pragma solidity ^0.5.0;\n\ncontract MessagesPool {\n    mapping(address => bool) isWriteMessage;\n    string[] public messagesPool;\n\n    event PostSucceed(address user, string message);\n\n    function getMessagesLength() public view returns (uint256) {\n        return messagesPool.length;\n    }\n\n    function postMessage(string memory message) public {\n        require(!isWriteMessage[msg.sender], \"you are post already\");\n        messagesPool.push(message);\n        isWriteMessage[msg.sender] = true;\n        emit PostSucceed(msg.sender, message);\n    }\n}\n",
  "sourcePath": "/Users/kantapatchankasem/playground/portfolio-contract/contracts/MessagesPool.sol",
  "compiler": {
    "name": "solc",
    "version": "0.5.16+commit.9c3226ce.Emscripten.clang"
  },
  "schemaVersion": "3.3.4",
  "updatedAt": "2021-03-14T19:58:59.988Z",
  "networkType": "ethereum",
  "devdoc": {
    "methods": {}
  },
  "userdoc": {
    "methods": {}
  }
}